{
  "_format": "hh-sol-artifact-1",
  "contractName": "ZuniswapV2Library",
  "sourceName": "src/ZuniswapV2Library.sol",
  "abi": [
    {
      "inputs": [],
      "name": "InsufficientAmount",
      "type": "error"
    },
    {
      "inputs": [],
      "name": "InsufficientLiquidity",
      "type": "error"
    },
    {
      "inputs": [],
      "name": "InvalidPath",
      "type": "error"
    },
    {
      "inputs": [
        {
          "internalType": "uint256",
          "name": "amountOut",
          "type": "uint256"
        },
        {
          "internalType": "uint256",
          "name": "reserveIn",
          "type": "uint256"
        },
        {
          "internalType": "uint256",
          "name": "reserveOut",
          "type": "uint256"
        }
      ],
      "name": "getAmountIn",
      "outputs": [
        {
          "internalType": "uint256",
          "name": "",
          "type": "uint256"
        }
      ],
      "stateMutability": "pure",
      "type": "function"
    },
    {
      "inputs": [
        {
          "internalType": "uint256",
          "name": "amountIn",
          "type": "uint256"
        },
        {
          "internalType": "uint256",
          "name": "reserveIn",
          "type": "uint256"
        },
        {
          "internalType": "uint256",
          "name": "reserveOut",
          "type": "uint256"
        }
      ],
      "name": "getAmountOut",
      "outputs": [
        {
          "internalType": "uint256",
          "name": "",
          "type": "uint256"
        }
      ],
      "stateMutability": "pure",
      "type": "function"
    },
    {
      "inputs": [
        {
          "internalType": "uint256",
          "name": "amountIn",
          "type": "uint256"
        },
        {
          "internalType": "uint256",
          "name": "reserveIn",
          "type": "uint256"
        },
        {
          "internalType": "uint256",
          "name": "reserveOut",
          "type": "uint256"
        }
      ],
      "name": "quote",
      "outputs": [
        {
          "internalType": "uint256",
          "name": "amountOut",
          "type": "uint256"
        }
      ],
      "stateMutability": "pure",
      "type": "function"
    }
  ],
  "bytecode": "0x614b5b610053600b82828239805160001a607314610046577f4e487b7100000000000000000000000000000000000000000000000000000000600052600060045260246000fd5b30600052607381538281f3fe7300000000000000000000000000000000000000003014608060405260043610620000735760003560e01c8063054d50d41462000078578063192128b214620000ae5780633274946114620000f257806385f8c2591462000137578063ad615dec146200016d578063bb7b9c7614620001a3575b600080fd5b62000096600480360381019062000090919062000a2b565b620001e7565b604051620000a5919062000a98565b60405180910390f35b818015620000bb57600080fd5b50620000da6004803603810190620000d4919062000c8f565b620002cd565b604051620000e9919062000dd8565b60405180910390f35b818015620000ff57600080fd5b506200011e600480360381019062000118919062000dfc565b62000489565b6040516200012e92919062000e58565b60405180910390f35b6200015560048036038101906200014f919062000a2b565b6200059a565b60405162000164919062000a98565b60405180910390f35b6200018b600480360381019062000185919062000a2b565b62000688565b6040516200019a919062000a98565b60405180910390f35b818015620001b057600080fd5b50620001cf6004803603810190620001c9919062000c8f565b62000731565b604051620001de919062000dd8565b60405180910390f35b60008084141562000224576040517f5945ea5600000000000000000000000000000000000000000000000000000000815260040160405180910390fd5b6000831480620002345750600082145b156200026c576040517fbb55fd2700000000000000000000000000000000000000000000000000000000815260040160405180910390fd5b60006103e5856200027e919062000eb4565b90506000838262000290919062000eb4565b90506000826103e887620002a5919062000eb4565b620002b1919062000f15565b90508082620002c1919062000fa1565b93505050509392505050565b60606002825110156200030c576040517f20db826700000000000000000000000000000000000000000000000000000000815260040160405180910390fd5b6000825167ffffffffffffffff8111156200032c576200032b62000b30565b5b6040519080825280602002602001820160405280156200035b5781602001602082028036833780820191505090505b50905083816001835162000370919062000fd9565b8151811062000384576200038362001014565b5b602002602001018181525050600060018451620003a2919062000fd9565b90505b60008111156200047d57600080620004078887600186620003c7919062000fd9565b81518110620003db57620003da62001014565b5b6020026020010151888681518110620003f957620003f862001014565b5b602002602001015162000489565b915091506200043584848151811062000425576200042462001014565b5b602002602001015183836200059a565b8460018562000445919062000fd9565b8151811062000459576200045862001014565b5b60200260200101818152505050508080620004749062001043565b915050620003a5565b50809150509392505050565b6000806000806200049b8686620008db565b91509150600080620004af89858562000928565b73ffffffffffffffffffffffffffffffffffffffff16630902f1ac6040518163ffffffff1660e01b81526004016060604051808303816000875af1158015620004fc573d6000803e3d6000fd5b505050506040513d601f19601f82011682018060405250810190620005229190620010fe565b506dffffffffffffffffffffffffffff1691506dffffffffffffffffffffffffffff1691508373ffffffffffffffffffffffffffffffffffffffff168873ffffffffffffffffffffffffffffffffffffffff16146200058357808262000586565b81815b809650819750505050505050935093915050565b600080841415620005d7576040517f5945ea5600000000000000000000000000000000000000000000000000000000815260040160405180910390fd5b6000831480620005e75750600082145b156200061f576040517fbb55fd2700000000000000000000000000000000000000000000000000000000815260040160405180910390fd5b60006103e8858562000632919062000eb4565b6200063e919062000eb4565b905060006103e5868562000653919062000fd9565b6200065f919062000eb4565b90506001818362000671919062000fa1565b6200067d919062000f15565b925050509392505050565b600080841415620006c5576040517f5945ea5600000000000000000000000000000000000000000000000000000000815260040160405180910390fd5b6000831480620006d55750600082145b156200070d576040517fbb55fd2700000000000000000000000000000000000000000000000000000000815260040160405180910390fd5b8282856200071c919062000eb4565b62000728919062000fa1565b90509392505050565b606060028251101562000770576040517f20db826700000000000000000000000000000000000000000000000000000000815260040160405180910390fd5b6000825167ffffffffffffffff81111562000790576200078f62000b30565b5b604051908082528060200260200182016040528015620007bf5781602001602082028036833780820191505090505b5090508381600081518110620007da57620007d962001014565b5b60200260200101818152505060005b60018451620007f9919062000fd9565b811015620008cf5760008062000859888785815181106200081f576200081e62001014565b5b60200260200101518860018762000837919062000f15565b815181106200084b576200084a62001014565b5b602002602001015162000489565b915091506200088784848151811062000877576200087662001014565b5b60200260200101518383620001e7565b8460018562000897919062000f15565b81518110620008ab57620008aa62001014565b5b60200260200101818152505050508080620008c6906200115a565b915050620007e9565b50809150509392505050565b6000808273ffffffffffffffffffffffffffffffffffffffff168473ffffffffffffffffffffffffffffffffffffffff16106200091a5782846200091d565b83835b915091509250929050565b6000806000620009398585620008db565b9150915085828260405160200162000953929190620011f8565b60405160208183030381529060405280519060200120604051806020016200097b90620009ce565b6020820181038252601f19601f8201166040525080519060200120604051602001620009aa93929190620012b2565b6040516020818303038152906040528051906020012060001c925050509392505050565b613823806200130383390190565b6000604051905090565b600080fd5b600080fd5b6000819050919050565b62000a0581620009f0565b811462000a1157600080fd5b50565b60008135905062000a2581620009fa565b92915050565b60008060006060848603121562000a475762000a46620009e6565b5b600062000a578682870162000a14565b935050602062000a6a8682870162000a14565b925050604062000a7d8682870162000a14565b9150509250925092565b62000a9281620009f0565b82525050565b600060208201905062000aaf600083018462000a87565b92915050565b600073ffffffffffffffffffffffffffffffffffffffff82169050919050565b600062000ae28262000ab5565b9050919050565b62000af48162000ad5565b811462000b0057600080fd5b50565b60008135905062000b148162000ae9565b92915050565b600080fd5b6000601f19601f8301169050919050565b7f4e487b7100000000000000000000000000000000000000000000000000000000600052604160045260246000fd5b62000b6a8262000b1f565b810181811067ffffffffffffffff8211171562000b8c5762000b8b62000b30565b5b80604052505050565b600062000ba1620009dc565b905062000baf828262000b5f565b919050565b600067ffffffffffffffff82111562000bd25762000bd162000b30565b5b602082029050602081019050919050565b600080fd5b600062000bff62000bf98462000bb4565b62000b95565b9050808382526020820190506020840283018581111562000c255762000c2462000be3565b5b835b8181101562000c52578062000c3d888262000b03565b84526020840193505060208101905062000c27565b5050509392505050565b600082601f83011262000c745762000c7362000b1a565b5b813562000c8684826020860162000be8565b91505092915050565b60008060006060848603121562000cab5762000caa620009e6565b5b600062000cbb8682870162000b03565b935050602062000cce8682870162000a14565b925050604084013567ffffffffffffffff81111562000cf25762000cf1620009eb565b5b62000d008682870162000c5c565b9150509250925092565b600081519050919050565b600082825260208201905092915050565b6000819050602082019050919050565b62000d4181620009f0565b82525050565b600062000d55838362000d36565b60208301905092915050565b6000602082019050919050565b600062000d7b8262000d0a565b62000d87818562000d15565b935062000d948362000d26565b8060005b8381101562000dcb57815162000daf888262000d47565b975062000dbc8362000d61565b92505060018101905062000d98565b5085935050505092915050565b6000602082019050818103600083015262000df4818462000d6e565b905092915050565b60008060006060848603121562000e185762000e17620009e6565b5b600062000e288682870162000b03565b935050602062000e3b8682870162000b03565b925050604062000e4e8682870162000b03565b9150509250925092565b600060408201905062000e6f600083018562000a87565b62000e7e602083018462000a87565b9392505050565b7f4e487b7100000000000000000000000000000000000000000000000000000000600052601160045260246000fd5b600062000ec182620009f0565b915062000ece83620009f0565b9250817fffffffffffffffffffffffffffffffffffffffffffffffffffffffffffffffff048311821515161562000f0a5762000f0962000e85565b5b828202905092915050565b600062000f2282620009f0565b915062000f2f83620009f0565b9250827fffffffffffffffffffffffffffffffffffffffffffffffffffffffffffffffff0382111562000f675762000f6662000e85565b5b828201905092915050565b7f4e487b7100000000000000000000000000000000000000000000000000000000600052601260045260246000fd5b600062000fae82620009f0565b915062000fbb83620009f0565b92508262000fce5762000fcd62000f72565b5b828204905092915050565b600062000fe682620009f0565b915062000ff383620009f0565b92508282101562001009576200100862000e85565b5b828203905092915050565b7f4e487b7100000000000000000000000000000000000000000000000000000000600052603260045260246000fd5b60006200105082620009f0565b9150600082141562001067576200106662000e85565b5b600182039050919050565b60006dffffffffffffffffffffffffffff82169050919050565b620010978162001072565b8114620010a357600080fd5b50565b600081519050620010b7816200108c565b92915050565b600063ffffffff82169050919050565b620010d881620010bd565b8114620010e457600080fd5b50565b600081519050620010f881620010cd565b92915050565b6000806000606084860312156200111a5762001119620009e6565b5b60006200112a86828701620010a6565b93505060206200113d86828701620010a6565b92505060406200115086828701620010e7565b9150509250925092565b60006200116782620009f0565b91507fffffffffffffffffffffffffffffffffffffffffffffffffffffffffffffffff8214156200119d576200119c62000e85565b5b600182019050919050565b60008160601b9050919050565b6000620011c282620011a8565b9050919050565b6000620011d682620011b5565b9050919050565b620011f2620011ec8262000ad5565b620011c9565b82525050565b6000620012068285620011dd565b601482019150620012188284620011dd565b6014820191508190509392505050565b600081905092915050565b7fff00000000000000000000000000000000000000000000000000000000000000600082015250565b60006200126b60018362001228565b9150620012788262001233565b600182019050919050565b6000819050919050565b6000819050919050565b620012ac620012a68262001283565b6200128d565b82525050565b6000620012bf826200125c565b9150620012cd8286620011dd565b601482019150620012df828562001297565b602082019150620012f1828462001297565b60208201915081905094935050505056fe60e06040523480156200001157600080fd5b506040518060400160405280600f81526020017f5a756e69737761705632205061697200000000000000000000000000000000008152506040518060400160405280600681526020017f5a554e4956320000000000000000000000000000000000000000000000000000815250601282600090805190602001906200009892919062000194565b508160019080519060200190620000b192919062000194565b508060ff1660808160ff16815250504660a08181525050620000d8620000e860201b60201c565b60c0818152505050505062000445565b60007f8b73c3c69bb8fe3d512ecc4cf759cc79239f7b179b0ffacaa9a75d522b39400f60006040516200011c919062000354565b60405180910390206040518060400160405280600181526020017f310000000000000000000000000000000000000000000000000000000000000081525080519060200120463060405160200162000179959493929190620003e8565b60405160208183030381529060405280519060200120905090565b828054620001a29062000273565b90600052602060002090601f016020900481019282620001c6576000855562000212565b82601f10620001e157805160ff191683800117855562000212565b8280016001018555821562000212579182015b8281111562000211578251825591602001919060010190620001f4565b5b50905062000221919062000225565b5090565b5b808211156200024057600081600090555060010162000226565b5090565b7f4e487b7100000000000000000000000000000000000000000000000000000000600052602260045260246000fd5b600060028204905060018216806200028c57607f821691505b60208210811415620002a357620002a262000244565b5b50919050565b600081905092915050565b60008190508160005260206000209050919050565b60008154620002d88162000273565b620002e48186620002a9565b9450600182166000811462000302576001811462000314576200034b565b60ff198316865281860193506200034b565b6200031f85620002b4565b60005b83811015620003435781548189015260018201915060208101905062000322565b838801955050505b50505092915050565b6000620003628284620002c9565b915081905092915050565b6000819050919050565b62000382816200036d565b82525050565b6000819050919050565b6200039d8162000388565b82525050565b600073ffffffffffffffffffffffffffffffffffffffff82169050919050565b6000620003d082620003a3565b9050919050565b620003e281620003c3565b82525050565b600060a082019050620003ff600083018862000377565b6200040e602083018762000377565b6200041d604083018662000377565b6200042c606083018562000392565b6200043b6080830184620003d7565b9695505050505050565b60805160a05160c0516133ae620004756000396000610f4201526000610f0e01526000610ee801526133ae6000f3fe608060405234801561001057600080fd5b506004361061014d5760003560e01c80635909c0d5116100c357806395d89b411161007c57806395d89b41146103bb578063a9059cbb146103d9578063d21220a714610409578063d505accf14610427578063dd62ed3e14610443578063fff6cae9146104735761014d565b80635909c0d5146102be5780635a3d5493146102dc5780636a627842146102fa57806370a082311461032a5780637ecebe001461035a57806389afcb441461038a5761014d565b806318160ddd1161011557806318160ddd146101fa57806323b872dd1461021857806330adf81f14610248578063313ce567146102665780633644e51514610284578063485cc955146102a25761014d565b8063022c0d9f1461015257806306fdde031461016e5780630902f1ac1461018c578063095ea7b3146101ac5780630dfe1681146101dc575b600080fd5b61016c60048036038101906101679190612698565b61047d565b005b610176610a6d565b60405161018391906127b9565b60405180910390f35b610194610afb565b6040516101a393929190612823565b60405180910390f35b6101c660048036038101906101c1919061285a565b610b58565b6040516101d391906128b5565b60405180910390f35b6101e4610c4a565b6040516101f191906128df565b60405180910390f35b610202610c70565b60405161020f9190612909565b60405180910390f35b610232600480360381019061022d9190612924565b610c76565b60405161023f91906128b5565b60405180910390f35b610250610ec2565b60405161025d9190612990565b60405180910390f35b61026e610ee6565b60405161027b91906129c7565b60405180910390f35b61028c610f0a565b6040516102999190612990565b60405180910390f35b6102bc60048036038101906102b791906129e2565b610f67565b005b6102c66110d1565b6040516102d39190612909565b60405180910390f35b6102e46110d7565b6040516102f19190612909565b60405180910390f35b610314600480360381019061030f9190612a22565b6110dd565b6040516103219190612909565b60405180910390f35b610344600480360381019061033f9190612a22565b6113bb565b6040516103519190612909565b60405180910390f35b610374600480360381019061036f9190612a22565b6113d3565b6040516103819190612909565b60405180910390f35b6103a4600480360381019061039f9190612a22565b6113eb565b6040516103b2929190612a4f565b60405180910390f35b6103c361180e565b6040516103d091906127b9565b60405180910390f35b6103f360048036038101906103ee919061285a565b61189c565b60405161040091906128b5565b60405180910390f35b6104116119b0565b60405161041e91906128df565b60405180910390f35b610441600480360381019061043c9190612ad0565b6119d6565b005b61045d600480360381019061045891906129e2565b611cd5565b60405161046a9190612909565b60405180910390f35b61047b611cfa565b005b600b60009054906101000a900460ff161561049757600080fd5b6001600b60006101000a81548160ff0219169083151502179055506000851480156104c25750600084145b156104f9576040517f42301c2300000000000000000000000000000000000000000000000000000000815260040160405180910390fd5b600080610504610afb565b5091509150816dffffffffffffffffffffffffffff168711806105365750806dffffffffffffffffffffffffffff1686115b1561056d576040517fbb55fd2700000000000000000000000000000000000000000000000000000000815260040160405180910390fd5b60008711156105a4576105a3600660009054906101000a900473ffffffffffffffffffffffffffffffffffffffff168689611e54565b5b60008611156105db576105da600760009054906101000a900473ffffffffffffffffffffffffffffffffffffffff168688611e54565b5b600084849050111561065b578473ffffffffffffffffffffffffffffffffffffffff1663c68e5d5033898988886040518663ffffffff1660e01b8152600401610628959493929190612bbf565b600060405180830381600087803b15801561064257600080fd5b505af1158015610656573d6000803e3d6000fd5b505050505b6000600660009054906101000a900473ffffffffffffffffffffffffffffffffffffffff1673ffffffffffffffffffffffffffffffffffffffff166370a08231306040518263ffffffff1660e01b81526004016106b891906128df565b6020604051808303816000875af11580156106d7573d6000803e3d6000fd5b505050506040513d601f19601f820116820180604052508101906106fb9190612c22565b90506000600760009054906101000a900473ffffffffffffffffffffffffffffffffffffffff1673ffffffffffffffffffffffffffffffffffffffff166370a08231306040518263ffffffff1660e01b815260040161075a91906128df565b6020604051808303816000875af1158015610779573d6000803e3d6000fd5b505050506040513d601f19601f8201168201806040525081019061079d9190612c22565b9050600089600860009054906101000a90046dffffffffffffffffffffffffffff166dffffffffffffffffffffffffffff166107d99190612c7e565b83116107e657600061082a565b89600860009054906101000a90046dffffffffffffffffffffffffffff166dffffffffffffffffffffffffffff1661081e9190612c7e565b836108299190612c7e565b5b90506000896008600e9054906101000a90046dffffffffffffffffffffffffffff166dffffffffffffffffffffffffffff166108669190612c7e565b83116108735760006108b7565b896008600e9054906101000a90046dffffffffffffffffffffffffffff166dffffffffffffffffffffffffffff166108ab9190612c7e565b836108b69190612c7e565b5b90506000821480156108c95750600081145b15610900576040517f098fb56100000000000000000000000000000000000000000000000000000000815260040160405180910390fd5b600060038361090f9190612cb2565b6103e88661091d9190612cb2565b6109279190612c7e565b905060006003836109389190612cb2565b6103e8866109469190612cb2565b6109509190612c7e565b9050620f4240876dffffffffffffffffffffffffffff16896dffffffffffffffffffffffffffff166109829190612cb2565b61098c9190612cb2565b81836109989190612cb2565b10156109d0576040517fbd8bc36400000000000000000000000000000000000000000000000000000000815260040160405180910390fd5b6109dc86868a8a611fbc565b8a73ffffffffffffffffffffffffffffffffffffffff163373ffffffffffffffffffffffffffffffffffffffff167f2a9237ff5aa599ef4c5ee4b1142b53429d5755e2685fe6288b2e3320202115f58f8f604051610a3b929190612a4f565b60405180910390a350505050505050506000600b60006101000a81548160ff0219169083151502179055505050505050565b60008054610a7a90612d3b565b80601f0160208091040260200160405190810160405280929190818152602001828054610aa690612d3b565b8015610af35780601f10610ac857610100808354040283529160200191610af3565b820191906000526020600020905b815481529060010190602001808311610ad657829003601f168201915b505050505081565b6000806000600860009054906101000a90046dffffffffffffffffffffffffffff166008600e9054906101000a90046dffffffffffffffffffffffffffff166008601c9054906101000a900463ffffffff16925092509250909192565b600081600460003373ffffffffffffffffffffffffffffffffffffffff1673ffffffffffffffffffffffffffffffffffffffff16815260200190815260200160002060008573ffffffffffffffffffffffffffffffffffffffff1673ffffffffffffffffffffffffffffffffffffffff168152602001908152602001600020819055508273ffffffffffffffffffffffffffffffffffffffff163373ffffffffffffffffffffffffffffffffffffffff167f8c5be1e5ebec7d5bd14f71427d1e84f3dd0314c0f7b2291e5b200ac8c7c3b92584604051610c389190612909565b60405180910390a36001905092915050565b600660009054906101000a900473ffffffffffffffffffffffffffffffffffffffff1681565b60025481565b60007fffffffffffffffffffffffffffffffffffffffffffffffffffffffffffffffff600460008673ffffffffffffffffffffffffffffffffffffffff1673ffffffffffffffffffffffffffffffffffffffff16815260200190815260200160002060003373ffffffffffffffffffffffffffffffffffffffff1673ffffffffffffffffffffffffffffffffffffffff1681526020019081526020016000205414610daf5781600460008673ffffffffffffffffffffffffffffffffffffffff1673ffffffffffffffffffffffffffffffffffffffff16815260200190815260200160002060003373ffffffffffffffffffffffffffffffffffffffff1673ffffffffffffffffffffffffffffffffffffffff1681526020019081526020016000206000828254610da79190612c7e565b925050819055505b81600360008673ffffffffffffffffffffffffffffffffffffffff1673ffffffffffffffffffffffffffffffffffffffff1681526020019081526020016000206000828254610dfe9190612c7e565b9250508190555081600360008573ffffffffffffffffffffffffffffffffffffffff1673ffffffffffffffffffffffffffffffffffffffff168152602001908152602001600020600082825401925050819055508273ffffffffffffffffffffffffffffffffffffffff168473ffffffffffffffffffffffffffffffffffffffff167fddf252ad1be2c89b69c2b068fc378daa952ba7f163c4a11628f55a4df523b3ef84604051610eaf9190612909565b60405180910390a3600190509392505050565b7f6e71edae12b1b97f4d1f60370fef10105fa2faae0126114a169c64845d6126c981565b7f000000000000000000000000000000000000000000000000000000000000000081565b60007f00000000000000000000000000000000000000000000000000000000000000004614610f4057610f3b612260565b610f62565b7f00000000000000000000000000000000000000000000000000000000000000005b905090565b600073ffffffffffffffffffffffffffffffffffffffff16600660009054906101000a900473ffffffffffffffffffffffffffffffffffffffff1673ffffffffffffffffffffffffffffffffffffffff161415806110145750600073ffffffffffffffffffffffffffffffffffffffff16600760009054906101000a900473ffffffffffffffffffffffffffffffffffffffff1673ffffffffffffffffffffffffffffffffffffffff1614155b1561104b576040517f0dc149f000000000000000000000000000000000000000000000000000000000815260040160405180910390fd5b81600660006101000a81548173ffffffffffffffffffffffffffffffffffffffff021916908373ffffffffffffffffffffffffffffffffffffffff16021790555080600760006101000a81548173ffffffffffffffffffffffffffffffffffffffff021916908373ffffffffffffffffffffffffffffffffffffffff1602179055505050565b60095481565b600a5481565b60008060006110ea610afb565b50915091506000600660009054906101000a900473ffffffffffffffffffffffffffffffffffffffff1673ffffffffffffffffffffffffffffffffffffffff166370a08231306040518263ffffffff1660e01b815260040161114c91906128df565b6020604051808303816000875af115801561116b573d6000803e3d6000fd5b505050506040513d601f19601f8201168201806040525081019061118f9190612c22565b90506000600760009054906101000a900473ffffffffffffffffffffffffffffffffffffffff1673ffffffffffffffffffffffffffffffffffffffff166370a08231306040518263ffffffff1660e01b81526004016111ee91906128df565b6020604051808303816000875af115801561120d573d6000803e3d6000fd5b505050506040513d601f19601f820116820180604052508101906112319190612c22565b90506000846dffffffffffffffffffffffffffff16836112519190612c7e565b90506000846dffffffffffffffffffffffffffff16836112719190612c7e565b9050600060025414156112b3576103e861129582846112909190612cb2565b612308565b61129f9190612c7e565b96506112ae60006103e8612382565b611310565b61130d866dffffffffffffffffffffffffffff16600254846112d59190612cb2565b6112df9190612d9c565b866dffffffffffffffffffffffffffff16600254846112fe9190612cb2565b6113089190612d9c565b612452565b96505b6000871161134a576040517fd226f9d400000000000000000000000000000000000000000000000000000000815260040160405180910390fd5b6113548888612382565b61136084848888611fbc565b8773ffffffffffffffffffffffffffffffffffffffff167f4c209b5fc8ad50758f13e2e1088ba56a560dff690a1c6fef26394f4c03821c4f83836040516113a8929190612a4f565b60405180910390a2505050505050919050565b60036020528060005260406000206000915090505481565b60056020528060005260406000206000915090505481565b6000806000600660009054906101000a900473ffffffffffffffffffffffffffffffffffffffff1673ffffffffffffffffffffffffffffffffffffffff166370a08231306040518263ffffffff1660e01b815260040161144b91906128df565b6020604051808303816000875af115801561146a573d6000803e3d6000fd5b505050506040513d601f19601f8201168201806040525081019061148e9190612c22565b90506000600760009054906101000a900473ffffffffffffffffffffffffffffffffffffffff1673ffffffffffffffffffffffffffffffffffffffff166370a08231306040518263ffffffff1660e01b81526004016114ed91906128df565b6020604051808303816000875af115801561150c573d6000803e3d6000fd5b505050506040513d601f19601f820116820180604052508101906115309190612c22565b90506000600360003073ffffffffffffffffffffffffffffffffffffffff1673ffffffffffffffffffffffffffffffffffffffff16815260200190815260200160002054905060025483826115859190612cb2565b61158f9190612d9c565b945060025482826115a09190612cb2565b6115aa9190612d9c565b935060008514806115bb5750600084145b156115f2576040517f749383ad00000000000000000000000000000000000000000000000000000000815260040160405180910390fd5b6115fc308261246b565b611629600660009054906101000a900473ffffffffffffffffffffffffffffffffffffffff168787611e54565b611656600760009054906101000a900473ffffffffffffffffffffffffffffffffffffffff168786611e54565b600660009054906101000a900473ffffffffffffffffffffffffffffffffffffffff1673ffffffffffffffffffffffffffffffffffffffff166370a08231306040518263ffffffff1660e01b81526004016116b191906128df565b6020604051808303816000875af11580156116d0573d6000803e3d6000fd5b505050506040513d601f19601f820116820180604052508101906116f49190612c22565b9250600760009054906101000a900473ffffffffffffffffffffffffffffffffffffffff1673ffffffffffffffffffffffffffffffffffffffff166370a08231306040518263ffffffff1660e01b815260040161175191906128df565b6020604051808303816000875af1158015611770573d6000803e3d6000fd5b505050506040513d601f19601f820116820180604052508101906117949190612c22565b91506000806117a1610afb565b50915091506117b285858484611fbc565b3373ffffffffffffffffffffffffffffffffffffffff167fdccd412f0b1252819cb1fd330b93224ca42612892bb3f4f789976e6d8193649688888b6040516117fc93929190612dcd565b60405180910390a25050505050915091565b6001805461181b90612d3b565b80601f016020809104026020016040519081016040528092919081815260200182805461184790612d3b565b80156118945780601f1061186957610100808354040283529160200191611894565b820191906000526020600020905b81548152906001019060200180831161187757829003601f168201915b505050505081565b600081600360003373ffffffffffffffffffffffffffffffffffffffff1673ffffffffffffffffffffffffffffffffffffffff16815260200190815260200160002060008282546118ed9190612c7e565b9250508190555081600360008573ffffffffffffffffffffffffffffffffffffffff1673ffffffffffffffffffffffffffffffffffffffff168152602001908152602001600020600082825401925050819055508273ffffffffffffffffffffffffffffffffffffffff163373ffffffffffffffffffffffffffffffffffffffff167fddf252ad1be2c89b69c2b068fc378daa952ba7f163c4a11628f55a4df523b3ef8460405161199e9190612909565b60405180910390a36001905092915050565b600760009054906101000a900473ffffffffffffffffffffffffffffffffffffffff1681565b42841015611a19576040517f08c379a0000000000000000000000000000000000000000000000000000000008152600401611a1090612e50565b60405180910390fd5b6000611a23610f0a565b7f6e71edae12b1b97f4d1f60370fef10105fa2faae0126114a169c64845d6126c9898989600560008e73ffffffffffffffffffffffffffffffffffffffff1673ffffffffffffffffffffffffffffffffffffffff1681526020019081526020016000206000815480929190600101919050558a604051602001611aab96959493929190612e70565b60405160208183030381529060405280519060200120604051602001611ad2929190612f49565b604051602081830303815290604052805190602001209050600060018286868660405160008152602001604052604051611b0f9493929190612f80565b6020604051602081039080840390855afa158015611b31573d6000803e3d6000fd5b505050602060405103519050600073ffffffffffffffffffffffffffffffffffffffff168173ffffffffffffffffffffffffffffffffffffffff1614158015611ba557508873ffffffffffffffffffffffffffffffffffffffff168173ffffffffffffffffffffffffffffffffffffffff16145b611be4576040517f08c379a0000000000000000000000000000000000000000000000000000000008152600401611bdb90613011565b60405180910390fd5b86600460008373ffffffffffffffffffffffffffffffffffffffff1673ffffffffffffffffffffffffffffffffffffffff16815260200190815260200160002060008a73ffffffffffffffffffffffffffffffffffffffff1673ffffffffffffffffffffffffffffffffffffffff1681526020019081526020016000208190555050508573ffffffffffffffffffffffffffffffffffffffff168773ffffffffffffffffffffffffffffffffffffffff167f8c5be1e5ebec7d5bd14f71427d1e84f3dd0314c0f7b2291e5b200ac8c7c3b92587604051611cc49190612909565b60405180910390a350505050505050565b6004602052816000526040600020602052806000526040600020600091509150505481565b600080611d05610afb565b5091509150611e50600660009054906101000a900473ffffffffffffffffffffffffffffffffffffffff1673ffffffffffffffffffffffffffffffffffffffff166370a08231306040518263ffffffff1660e01b8152600401611d6891906128df565b6020604051808303816000875af1158015611d87573d6000803e3d6000fd5b505050506040513d601f19601f82011682018060405250810190611dab9190612c22565b600760009054906101000a900473ffffffffffffffffffffffffffffffffffffffff1673ffffffffffffffffffffffffffffffffffffffff166370a08231306040518263ffffffff1660e01b8152600401611e0691906128df565b6020604051808303816000875af1158015611e25573d6000803e3d6000fd5b505050506040513d601f19601f82011682018060405250810190611e499190612c22565b8484611fbc565b5050565b6000808473ffffffffffffffffffffffffffffffffffffffff168484604051602401611e81929190613031565b6040516020818303038152906040527fa9059cbb000000000000000000000000000000000000000000000000000000007bffffffffffffffffffffffffffffffffffffffffffffffffffffffff19166020820180517bffffffffffffffffffffffffffffffffffffffffffffffffffffffff8381831617835250505050604051611f0b91906130a1565b6000604051808303816000865af19150503d8060008114611f48576040519150601f19603f3d011682016040523d82523d6000602084013e611f4d565b606091505b5091509150811580611f7e57506000815114158015611f7d575080806020019051810190611f7b91906130e4565b155b5b15611fb5576040517f90b8ec1800000000000000000000000000000000000000000000000000000000815260040160405180910390fd5b5050505050565b6dffffffffffffffffffffffffffff8016841180611fe957506dffffffffffffffffffffffffffff801683115b15612020576040517f89560ca100000000000000000000000000000000000000000000000000000000815260040160405180910390fd5b60006008601c9054906101000a900463ffffffff164203905060008163ffffffff1611801561205f57506000836dffffffffffffffffffffffffffff16115b801561207b57506000826dffffffffffffffffffffffffffff16115b1561215d578063ffffffff166120c0846120948561253b565b7bffffffffffffffffffffffffffffffffffffffffffffffffffffffff1661256f90919063ffffffff16565b7bffffffffffffffffffffffffffffffffffffffffffffffffffffffff16026009600082825401925050819055508063ffffffff1661212e836121028661253b565b7bffffffffffffffffffffffffffffffffffffffffffffffffffffffff1661256f90919063ffffffff16565b7bffffffffffffffffffffffffffffffffffffffffffffffffffffffff1602600a600082825401925050819055505b5083600860006101000a8154816dffffffffffffffffffffffffffff02191690836dffffffffffffffffffffffffffff160217905550826008600e6101000a8154816dffffffffffffffffffffffffffff02191690836dffffffffffffffffffffffffffff160217905550426008601c6101000a81548163ffffffff021916908363ffffffff1602179055507fcf2aa50876cdfbb541206f89af0ee78d44a2abf8d328e37fa4917f982149848a600860009054906101000a90046dffffffffffffffffffffffffffff166008600e9054906101000a90046dffffffffffffffffffffffffffff1660405161225292919061314c565b60405180910390a150505050565b60007f8b73c3c69bb8fe3d512ecc4cf759cc79239f7b179b0ffacaa9a75d522b39400f60006040516122929190613209565b60405180910390206040518060400160405280600181526020017f31000000000000000000000000000000000000000000000000000000000000008152508051906020012046306040516020016122ed959493929190613220565b60405160208183030381529060405280519060200120905090565b6000600382111561236f57819050600060016002846123279190612d9c565b6123319190613273565b90505b8181101561236957809150600281828561234e9190612d9c565b6123589190613273565b6123629190612d9c565b9050612334565b5061237d565b6000821461237c57600190505b5b919050565b80600260008282546123949190613273565b9250508190555080600360008473ffffffffffffffffffffffffffffffffffffffff1673ffffffffffffffffffffffffffffffffffffffff168152602001908152602001600020600082825401925050819055508173ffffffffffffffffffffffffffffffffffffffff16600073ffffffffffffffffffffffffffffffffffffffff167fddf252ad1be2c89b69c2b068fc378daa952ba7f163c4a11628f55a4df523b3ef836040516124469190612909565b60405180910390a35050565b60008183106124615781612463565b825b905092915050565b80600360008473ffffffffffffffffffffffffffffffffffffffff1673ffffffffffffffffffffffffffffffffffffffff16815260200190815260200160002060008282546124ba9190612c7e565b9250508190555080600260008282540392505081905550600073ffffffffffffffffffffffffffffffffffffffff168273ffffffffffffffffffffffffffffffffffffffff167fddf252ad1be2c89b69c2b068fc378daa952ba7f163c4a11628f55a4df523b3ef8360405161252f9190612909565b60405180910390a35050565b60006e010000000000000000000000000000826dffffffffffffffffffffffffffff1661256891906132f1565b9050919050565b6000816dffffffffffffffffffffffffffff168361258d9190613347565b905092915050565b600080fd5b600080fd5b6000819050919050565b6125b28161259f565b81146125bd57600080fd5b50565b6000813590506125cf816125a9565b92915050565b600073ffffffffffffffffffffffffffffffffffffffff82169050919050565b6000612600826125d5565b9050919050565b612610816125f5565b811461261b57600080fd5b50565b60008135905061262d81612607565b92915050565b600080fd5b600080fd5b600080fd5b60008083601f84011261265857612657612633565b5b8235905067ffffffffffffffff81111561267557612674612638565b5b6020830191508360018202830111156126915761269061263d565b5b9250929050565b6000806000806000608086880312156126b4576126b3612595565b5b60006126c2888289016125c0565b95505060206126d3888289016125c0565b94505060406126e48882890161261e565b935050606086013567ffffffffffffffff8111156127055761270461259a565b5b61271188828901612642565b92509250509295509295909350565b600081519050919050565b600082825260208201905092915050565b60005b8381101561275a57808201518184015260208101905061273f565b83811115612769576000848401525b50505050565b6000601f19601f8301169050919050565b600061278b82612720565b612795818561272b565b93506127a581856020860161273c565b6127ae8161276f565b840191505092915050565b600060208201905081810360008301526127d38184612780565b905092915050565b60006dffffffffffffffffffffffffffff82169050919050565b6127fe816127db565b82525050565b600063ffffffff82169050919050565b61281d81612804565b82525050565b600060608201905061283860008301866127f5565b61284560208301856127f5565b6128526040830184612814565b949350505050565b6000806040838503121561287157612870612595565b5b600061287f8582860161261e565b9250506020612890858286016125c0565b9150509250929050565b60008115159050919050565b6128af8161289a565b82525050565b60006020820190506128ca60008301846128a6565b92915050565b6128d9816125f5565b82525050565b60006020820190506128f460008301846128d0565b92915050565b6129038161259f565b82525050565b600060208201905061291e60008301846128fa565b92915050565b60008060006060848603121561293d5761293c612595565b5b600061294b8682870161261e565b935050602061295c8682870161261e565b925050604061296d868287016125c0565b9150509250925092565b6000819050919050565b61298a81612977565b82525050565b60006020820190506129a56000830184612981565b92915050565b600060ff82169050919050565b6129c1816129ab565b82525050565b60006020820190506129dc60008301846129b8565b92915050565b600080604083850312156129f9576129f8612595565b5b6000612a078582860161261e565b9250506020612a188582860161261e565b9150509250929050565b600060208284031215612a3857612a37612595565b5b6000612a468482850161261e565b91505092915050565b6000604082019050612a6460008301856128fa565b612a7160208301846128fa565b9392505050565b612a81816129ab565b8114612a8c57600080fd5b50565b600081359050612a9e81612a78565b92915050565b612aad81612977565b8114612ab857600080fd5b50565b600081359050612aca81612aa4565b92915050565b600080600080600080600060e0888a031215612aef57612aee612595565b5b6000612afd8a828b0161261e565b9750506020612b0e8a828b0161261e565b9650506040612b1f8a828b016125c0565b9550506060612b308a828b016125c0565b9450506080612b418a828b01612a8f565b93505060a0612b528a828b01612abb565b92505060c0612b638a828b01612abb565b91505092959891949750929550565b600082825260208201905092915050565b82818337600083830152505050565b6000612b9e8385612b72565b9350612bab838584612b83565b612bb48361276f565b840190509392505050565b6000608082019050612bd460008301886128d0565b612be160208301876128fa565b612bee60408301866128fa565b8181036060830152612c01818486612b92565b90509695505050505050565b600081519050612c1c816125a9565b92915050565b600060208284031215612c3857612c37612595565b5b6000612c4684828501612c0d565b91505092915050565b7f4e487b7100000000000000000000000000000000000000000000000000000000600052601160045260246000fd5b6000612c898261259f565b9150612c948361259f565b925082821015612ca757612ca6612c4f565b5b828203905092915050565b6000612cbd8261259f565b9150612cc88361259f565b9250817fffffffffffffffffffffffffffffffffffffffffffffffffffffffffffffffff0483118215151615612d0157612d00612c4f565b5b828202905092915050565b7f4e487b7100000000000000000000000000000000000000000000000000000000600052602260045260246000fd5b60006002820490506001821680612d5357607f821691505b60208210811415612d6757612d66612d0c565b5b50919050565b7f4e487b7100000000000000000000000000000000000000000000000000000000600052601260045260246000fd5b6000612da78261259f565b9150612db28361259f565b925082612dc257612dc1612d6d565b5b828204905092915050565b6000606082019050612de260008301866128fa565b612def60208301856128fa565b612dfc60408301846128d0565b949350505050565b7f5045524d49545f444541444c494e455f45585049524544000000000000000000600082015250565b6000612e3a60178361272b565b9150612e4582612e04565b602082019050919050565b60006020820190508181036000830152612e6981612e2d565b9050919050565b600060c082019050612e856000830189612981565b612e9260208301886128d0565b612e9f60408301876128d0565b612eac60608301866128fa565b612eb960808301856128fa565b612ec660a08301846128fa565b979650505050505050565b600081905092915050565b7f1901000000000000000000000000000000000000000000000000000000000000600082015250565b6000612f12600283612ed1565b9150612f1d82612edc565b600282019050919050565b6000819050919050565b612f43612f3e82612977565b612f28565b82525050565b6000612f5482612f05565b9150612f608285612f32565b602082019150612f708284612f32565b6020820191508190509392505050565b6000608082019050612f956000830187612981565b612fa260208301866129b8565b612faf6040830185612981565b612fbc6060830184612981565b95945050505050565b7f494e56414c49445f5045524d49545f5349474e41545552450000000000000000600082015250565b6000612ffb60188361272b565b915061300682612fc5565b602082019050919050565b6000602082019050818103600083015261302a81612fee565b9050919050565b600060408201905061304660008301856128d0565b61305360208301846128fa565b9392505050565b600081519050919050565b600081905092915050565b600061307b8261305a565b6130858185613065565b935061309581856020860161273c565b80840191505092915050565b60006130ad8284613070565b915081905092915050565b6130c18161289a565b81146130cc57600080fd5b50565b6000815190506130de816130b8565b92915050565b6000602082840312156130fa576130f9612595565b5b6000613108848285016130cf565b91505092915050565b6000819050919050565b600061313661313161312c846127db565b613111565b61259f565b9050919050565b6131468161311b565b82525050565b6000604082019050613161600083018561313d565b61316e602083018461313d565b9392505050565b60008190508160005260206000209050919050565b6000815461319781612d3b565b6131a18186613065565b945060018216600081146131bc57600181146131cd57613200565b60ff19831686528186019350613200565b6131d685613175565b60005b838110156131f8578154818901526001820191506020810190506131d9565b838801955050505b50505092915050565b6000613215828461318a565b915081905092915050565b600060a0820190506132356000830188612981565b6132426020830187612981565b61324f6040830186612981565b61325c60608301856128fa565b61326960808301846128d0565b9695505050505050565b600061327e8261259f565b91506132898361259f565b9250827fffffffffffffffffffffffffffffffffffffffffffffffffffffffffffffffff038211156132be576132bd612c4f565b5b828201905092915050565b60007bffffffffffffffffffffffffffffffffffffffffffffffffffffffff82169050919050565b60006132fc826132c9565b9150613307836132c9565b9250817bffffffffffffffffffffffffffffffffffffffffffffffffffffffff048311821515161561333c5761333b612c4f565b5b828202905092915050565b6000613352826132c9565b915061335d836132c9565b92508261336d5761336c612d6d565b5b82820490509291505056fea2646970667358221220e3b2f000a9512c9dcf48c89ebfbf579a67937fe6893d5e65ccebb90f8036371a64736f6c634300080a0033a2646970667358221220b61767c18a0d36be5eea4a9b7f01d2cf95c66cee697378645f913cdb246736e164736f6c634300080a0033",
  "linkReferences": {},
  "deployedLinkReferences": {}
}