{
  "_format": "hh-sol-artifact-1",
  "contractName": "ZuniswapV2Pair",
  "sourceName": "src/ZuniswapV2Pair.sol",
  "abi": [
    {
      "inputs": [],
      "stateMutability": "nonpayable",
      "type": "constructor"
    },
    {
      "inputs": [],
      "name": "AlreadyInitialized",
      "type": "error"
    },
    {
      "inputs": [],
      "name": "BalanceOverflow",
      "type": "error"
    },
    {
      "inputs": [],
      "name": "InsufficientInputAmount",
      "type": "error"
    },
    {
      "inputs": [],
      "name": "InsufficientLiquidity",
      "type": "error"
    },
    {
      "inputs": [],
      "name": "InsufficientLiquidityBurned",
      "type": "error"
    },
    {
      "inputs": [],
      "name": "InsufficientLiquidityMinted",
      "type": "error"
    },
    {
      "inputs": [],
      "name": "InsufficientOutputAmount",
      "type": "error"
    },
    {
      "inputs": [],
      "name": "InvalidK",
      "type": "error"
    },
    {
      "inputs": [],
      "name": "TransferFailed",
      "type": "error"
    },
    {
      "anonymous": false,
      "inputs": [
        {
          "indexed": true,
          "internalType": "address",
          "name": "owner",
          "type": "address"
        },
        {
          "indexed": true,
          "internalType": "address",
          "name": "spender",
          "type": "address"
        },
        {
          "indexed": false,
          "internalType": "uint256",
          "name": "amount",
          "type": "uint256"
        }
      ],
      "name": "Approval",
      "type": "event"
    },
    {
      "anonymous": false,
      "inputs": [
        {
          "indexed": true,
          "internalType": "address",
          "name": "sender",
          "type": "address"
        },
        {
          "indexed": false,
          "internalType": "uint256",
          "name": "amount0",
          "type": "uint256"
        },
        {
          "indexed": false,
          "internalType": "uint256",
          "name": "amount1",
          "type": "uint256"
        },
        {
          "indexed": false,
          "internalType": "address",
          "name": "to",
          "type": "address"
        }
      ],
      "name": "Burn",
      "type": "event"
    },
    {
      "anonymous": false,
      "inputs": [
        {
          "indexed": true,
          "internalType": "address",
          "name": "sender",
          "type": "address"
        },
        {
          "indexed": false,
          "internalType": "uint256",
          "name": "amount0",
          "type": "uint256"
        },
        {
          "indexed": false,
          "internalType": "uint256",
          "name": "amount1",
          "type": "uint256"
        }
      ],
      "name": "Mint",
      "type": "event"
    },
    {
      "anonymous": false,
      "inputs": [
        {
          "indexed": true,
          "internalType": "address",
          "name": "sender",
          "type": "address"
        },
        {
          "indexed": false,
          "internalType": "uint256",
          "name": "amount0Out",
          "type": "uint256"
        },
        {
          "indexed": false,
          "internalType": "uint256",
          "name": "amount1Out",
          "type": "uint256"
        },
        {
          "indexed": true,
          "internalType": "address",
          "name": "to",
          "type": "address"
        }
      ],
      "name": "Swap",
      "type": "event"
    },
    {
      "anonymous": false,
      "inputs": [
        {
          "indexed": false,
          "internalType": "uint256",
          "name": "reserve0",
          "type": "uint256"
        },
        {
          "indexed": false,
          "internalType": "uint256",
          "name": "reserve1",
          "type": "uint256"
        }
      ],
      "name": "Sync",
      "type": "event"
    },
    {
      "anonymous": false,
      "inputs": [
        {
          "indexed": true,
          "internalType": "address",
          "name": "from",
          "type": "address"
        },
        {
          "indexed": true,
          "internalType": "address",
          "name": "to",
          "type": "address"
        },
        {
          "indexed": false,
          "internalType": "uint256",
          "name": "amount",
          "type": "uint256"
        }
      ],
      "name": "Transfer",
      "type": "event"
    },
    {
      "inputs": [],
      "name": "DOMAIN_SEPARATOR",
      "outputs": [
        {
          "internalType": "bytes32",
          "name": "",
          "type": "bytes32"
        }
      ],
      "stateMutability": "view",
      "type": "function"
    },
    {
      "inputs": [
        {
          "internalType": "address",
          "name": "",
          "type": "address"
        },
        {
          "internalType": "address",
          "name": "",
          "type": "address"
        }
      ],
      "name": "allowance",
      "outputs": [
        {
          "internalType": "uint256",
          "name": "",
          "type": "uint256"
        }
      ],
      "stateMutability": "view",
      "type": "function"
    },
    {
      "inputs": [
        {
          "internalType": "address",
          "name": "spender",
          "type": "address"
        },
        {
          "internalType": "uint256",
          "name": "amount",
          "type": "uint256"
        }
      ],
      "name": "approve",
      "outputs": [
        {
          "internalType": "bool",
          "name": "",
          "type": "bool"
        }
      ],
      "stateMutability": "nonpayable",
      "type": "function"
    },
    {
      "inputs": [
        {
          "internalType": "address",
          "name": "",
          "type": "address"
        }
      ],
      "name": "balanceOf",
      "outputs": [
        {
          "internalType": "uint256",
          "name": "",
          "type": "uint256"
        }
      ],
      "stateMutability": "view",
      "type": "function"
    },
    {
      "inputs": [
        {
          "internalType": "address",
          "name": "to",
          "type": "address"
        }
      ],
      "name": "burn",
      "outputs": [
        {
          "internalType": "uint256",
          "name": "amount0",
          "type": "uint256"
        },
        {
          "internalType": "uint256",
          "name": "amount1",
          "type": "uint256"
        }
      ],
      "stateMutability": "nonpayable",
      "type": "function"
    },
    {
      "inputs": [],
      "name": "decimals",
      "outputs": [
        {
          "internalType": "uint8",
          "name": "",
          "type": "uint8"
        }
      ],
      "stateMutability": "view",
      "type": "function"
    },
    {
      "inputs": [],
      "name": "getReserves",
      "outputs": [
        {
          "internalType": "uint112",
          "name": "",
          "type": "uint112"
        },
        {
          "internalType": "uint112",
          "name": "",
          "type": "uint112"
        },
        {
          "internalType": "uint32",
          "name": "",
          "type": "uint32"
        }
      ],
      "stateMutability": "view",
      "type": "function"
    },
    {
      "inputs": [
        {
          "internalType": "address",
          "name": "token0_",
          "type": "address"
        },
        {
          "internalType": "address",
          "name": "token1_",
          "type": "address"
        }
      ],
      "name": "initialize",
      "outputs": [],
      "stateMutability": "nonpayable",
      "type": "function"
    },
    {
      "inputs": [
        {
          "internalType": "address",
          "name": "to",
          "type": "address"
        }
      ],
      "name": "mint",
      "outputs": [
        {
          "internalType": "uint256",
          "name": "liquidity",
          "type": "uint256"
        }
      ],
      "stateMutability": "nonpayable",
      "type": "function"
    },
    {
      "inputs": [],
      "name": "name",
      "outputs": [
        {
          "internalType": "string",
          "name": "",
          "type": "string"
        }
      ],
      "stateMutability": "view",
      "type": "function"
    },
    {
      "inputs": [
        {
          "internalType": "address",
          "name": "",
          "type": "address"
        }
      ],
      "name": "nonces",
      "outputs": [
        {
          "internalType": "uint256",
          "name": "",
          "type": "uint256"
        }
      ],
      "stateMutability": "view",
      "type": "function"
    },
    {
      "inputs": [
        {
          "internalType": "address",
          "name": "owner",
          "type": "address"
        },
        {
          "internalType": "address",
          "name": "spender",
          "type": "address"
        },
        {
          "internalType": "uint256",
          "name": "value",
          "type": "uint256"
        },
        {
          "internalType": "uint256",
          "name": "deadline",
          "type": "uint256"
        },
        {
          "internalType": "uint8",
          "name": "v",
          "type": "uint8"
        },
        {
          "internalType": "bytes32",
          "name": "r",
          "type": "bytes32"
        },
        {
          "internalType": "bytes32",
          "name": "s",
          "type": "bytes32"
        }
      ],
      "name": "permit",
      "outputs": [],
      "stateMutability": "nonpayable",
      "type": "function"
    },
    {
      "inputs": [],
      "name": "price0CumulativeLast",
      "outputs": [
        {
          "internalType": "uint256",
          "name": "",
          "type": "uint256"
        }
      ],
      "stateMutability": "view",
      "type": "function"
    },
    {
      "inputs": [],
      "name": "price1CumulativeLast",
      "outputs": [
        {
          "internalType": "uint256",
          "name": "",
          "type": "uint256"
        }
      ],
      "stateMutability": "view",
      "type": "function"
    },
    {
      "inputs": [
        {
          "internalType": "uint256",
          "name": "amount0Out",
          "type": "uint256"
        },
        {
          "internalType": "uint256",
          "name": "amount1Out",
          "type": "uint256"
        },
        {
          "internalType": "address",
          "name": "to",
          "type": "address"
        },
        {
          "internalType": "bytes",
          "name": "data",
          "type": "bytes"
        }
      ],
      "name": "swap",
      "outputs": [],
      "stateMutability": "nonpayable",
      "type": "function"
    },
    {
      "inputs": [],
      "name": "symbol",
      "outputs": [
        {
          "internalType": "string",
          "name": "",
          "type": "string"
        }
      ],
      "stateMutability": "view",
      "type": "function"
    },
    {
      "inputs": [],
      "name": "sync",
      "outputs": [],
      "stateMutability": "nonpayable",
      "type": "function"
    },
    {
      "inputs": [],
      "name": "token0",
      "outputs": [
        {
          "internalType": "address",
          "name": "",
          "type": "address"
        }
      ],
      "stateMutability": "view",
      "type": "function"
    },
    {
      "inputs": [],
      "name": "token1",
      "outputs": [
        {
          "internalType": "address",
          "name": "",
          "type": "address"
        }
      ],
      "stateMutability": "view",
      "type": "function"
    },
    {
      "inputs": [],
      "name": "totalSupply",
      "outputs": [
        {
          "internalType": "uint256",
          "name": "",
          "type": "uint256"
        }
      ],
      "stateMutability": "view",
      "type": "function"
    },
    {
      "inputs": [
        {
          "internalType": "address",
          "name": "to",
          "type": "address"
        },
        {
          "internalType": "uint256",
          "name": "amount",
          "type": "uint256"
        }
      ],
      "name": "transfer",
      "outputs": [
        {
          "internalType": "bool",
          "name": "",
          "type": "bool"
        }
      ],
      "stateMutability": "nonpayable",
      "type": "function"
    },
    {
      "inputs": [
        {
          "internalType": "address",
          "name": "from",
          "type": "address"
        },
        {
          "internalType": "address",
          "name": "to",
          "type": "address"
        },
        {
          "internalType": "uint256",
          "name": "amount",
          "type": "uint256"
        }
      ],
      "name": "transferFrom",
      "outputs": [
        {
          "internalType": "bool",
          "name": "",
          "type": "bool"
        }
      ],
      "stateMutability": "nonpayable",
      "type": "function"
    }
  ],
  "bytecode": "0x60e06040523480156200001157600080fd5b506040518060400160405280600f81526020017f5a756e69737761705632205061697200000000000000000000000000000000008152506040518060400160405280600681526020017f5a554e4956320000000000000000000000000000000000000000000000000000815250601282600090805190602001906200009892919062000178565b508160019080519060200190620000b192919062000178565b508060ff1660808160ff16815250504660a08181525050620000d8620000e860201b60201c565b60c0818152505050505062000429565b60007f8b73c3c69bb8fe3d512ecc4cf759cc79239f7b179b0ffacaa9a75d522b39400f60006040516200011c919062000338565b60405180910390207fc89efdaa54c0f20c7adf612882df0950f5a951637e0307cdcb4c672f298b8bc646306040516020016200015d959493929190620003cc565b60405160208183030381529060405280519060200120905090565b828054620001869062000257565b90600052602060002090601f016020900481019282620001aa5760008555620001f6565b82601f10620001c557805160ff1916838001178555620001f6565b82800160010185558215620001f6579182015b82811115620001f5578251825591602001919060010190620001d8565b5b50905062000205919062000209565b5090565b5b80821115620002245760008160009055506001016200020a565b5090565b7f4e487b7100000000000000000000000000000000000000000000000000000000600052602260045260246000fd5b600060028204905060018216806200027057607f821691505b6020821081141562000287576200028662000228565b5b50919050565b600081905092915050565b60008190508160005260206000209050919050565b60008154620002bc8162000257565b620002c881866200028d565b94506001821660008114620002e65760018114620002f8576200032f565b60ff198316865281860193506200032f565b620003038562000298565b60005b83811015620003275781548189015260018201915060208101905062000306565b838801955050505b50505092915050565b6000620003468284620002ad565b915081905092915050565b6000819050919050565b620003668162000351565b82525050565b6000819050919050565b62000381816200036c565b82525050565b600073ffffffffffffffffffffffffffffffffffffffff82169050919050565b6000620003b48262000387565b9050919050565b620003c681620003a7565b82525050565b600060a082019050620003e360008301886200035b565b620003f260208301876200035b565b6200040160408301866200035b565b62000410606083018562000376565b6200041f6080830184620003bb565b9695505050505050565b60805160a05160c05161333d620004596000396000610ef301526000610ebf01526000610e99015261333d6000f3fe608060405234801561001057600080fd5b50600436106101425760003560e01c80635a3d5493116100b857806395d89b411161007c57806395d89b4114610392578063a9059cbb146103b0578063d21220a7146103e0578063d505accf146103fe578063dd62ed3e1461041a578063fff6cae91461044a57610142565b80635a3d5493146102b35780636a627842146102d157806370a08231146103015780637ecebe001461033157806389afcb441461036157610142565b806318160ddd1161010a57806318160ddd146101ef57806323b872dd1461020d578063313ce5671461023d5780633644e5151461025b578063485cc955146102795780635909c0d51461029557610142565b8063022c0d9f1461014757806306fdde03146101635780630902f1ac14610181578063095ea7b3146101a15780630dfe1681146101d1575b600080fd5b610161600480360381019061015c9190612627565b610454565b005b61016b610a44565b6040516101789190612748565b60405180910390f35b610189610ad2565b604051610198939291906127b2565b60405180910390f35b6101bb60048036038101906101b691906127e9565b610b2f565b6040516101c89190612844565b60405180910390f35b6101d9610c21565b6040516101e6919061286e565b60405180910390f35b6101f7610c47565b6040516102049190612898565b60405180910390f35b610227600480360381019061022291906128b3565b610c4d565b6040516102349190612844565b60405180910390f35b610245610e97565b6040516102529190612922565b60405180910390f35b610263610ebb565b6040516102709190612956565b60405180910390f35b610293600480360381019061028e9190612971565b610f18565b005b61029d611082565b6040516102aa9190612898565b60405180910390f35b6102bb611088565b6040516102c89190612898565b60405180910390f35b6102eb60048036038101906102e691906129b1565b61108e565b6040516102f89190612898565b60405180910390f35b61031b600480360381019061031691906129b1565b61136c565b6040516103289190612898565b60405180910390f35b61034b600480360381019061034691906129b1565b611384565b6040516103589190612898565b60405180910390f35b61037b600480360381019061037691906129b1565b61139c565b6040516103899291906129de565b60405180910390f35b61039a6117bf565b6040516103a79190612748565b60405180910390f35b6103ca60048036038101906103c591906127e9565b61184d565b6040516103d79190612844565b60405180910390f35b6103e8611961565b6040516103f5919061286e565b60405180910390f35b61041860048036038101906104139190612a5f565b611987565b005b610434600480360381019061042f9190612971565b611c80565b6040516104419190612898565b60405180910390f35b610452611ca5565b005b600b60009054906101000a900460ff161561046e57600080fd5b6001600b60006101000a81548160ff0219169083151502179055506000851480156104995750600084145b156104d0576040517f42301c2300000000000000000000000000000000000000000000000000000000815260040160405180910390fd5b6000806104db610ad2565b5091509150816dffffffffffffffffffffffffffff1687118061050d5750806dffffffffffffffffffffffffffff1686115b15610544576040517fbb55fd2700000000000000000000000000000000000000000000000000000000815260040160405180910390fd5b600087111561057b5761057a600660009054906101000a900473ffffffffffffffffffffffffffffffffffffffff168689611dff565b5b60008611156105b2576105b1600760009054906101000a900473ffffffffffffffffffffffffffffffffffffffff168688611dff565b5b6000848490501115610632578473ffffffffffffffffffffffffffffffffffffffff1663c68e5d5033898988886040518663ffffffff1660e01b81526004016105ff959493929190612b4e565b600060405180830381600087803b15801561061957600080fd5b505af115801561062d573d6000803e3d6000fd5b505050505b6000600660009054906101000a900473ffffffffffffffffffffffffffffffffffffffff1673ffffffffffffffffffffffffffffffffffffffff166370a08231306040518263ffffffff1660e01b815260040161068f919061286e565b6020604051808303816000875af11580156106ae573d6000803e3d6000fd5b505050506040513d601f19601f820116820180604052508101906106d29190612bb1565b90506000600760009054906101000a900473ffffffffffffffffffffffffffffffffffffffff1673ffffffffffffffffffffffffffffffffffffffff166370a08231306040518263ffffffff1660e01b8152600401610731919061286e565b6020604051808303816000875af1158015610750573d6000803e3d6000fd5b505050506040513d601f19601f820116820180604052508101906107749190612bb1565b9050600089600860009054906101000a90046dffffffffffffffffffffffffffff166dffffffffffffffffffffffffffff166107b09190612c0d565b83116107bd576000610801565b89600860009054906101000a90046dffffffffffffffffffffffffffff166dffffffffffffffffffffffffffff166107f59190612c0d565b836108009190612c0d565b5b90506000896008600e9054906101000a90046dffffffffffffffffffffffffffff166dffffffffffffffffffffffffffff1661083d9190612c0d565b831161084a57600061088e565b896008600e9054906101000a90046dffffffffffffffffffffffffffff166dffffffffffffffffffffffffffff166108829190612c0d565b8361088d9190612c0d565b5b90506000821480156108a05750600081145b156108d7576040517f098fb56100000000000000000000000000000000000000000000000000000000815260040160405180910390fd5b60006003836108e69190612c41565b6103e8866108f49190612c41565b6108fe9190612c0d565b9050600060038361090f9190612c41565b6103e88661091d9190612c41565b6109279190612c0d565b9050620f4240876dffffffffffffffffffffffffffff16896dffffffffffffffffffffffffffff166109599190612c41565b6109639190612c41565b818361096f9190612c41565b10156109a7576040517fbd8bc36400000000000000000000000000000000000000000000000000000000815260040160405180910390fd5b6109b386868a8a611f67565b8a73ffffffffffffffffffffffffffffffffffffffff163373ffffffffffffffffffffffffffffffffffffffff167f2a9237ff5aa599ef4c5ee4b1142b53429d5755e2685fe6288b2e3320202115f58f8f604051610a129291906129de565b60405180910390a350505050505050506000600b60006101000a81548160ff0219169083151502179055505050505050565b60008054610a5190612cca565b80601f0160208091040260200160405190810160405280929190818152602001828054610a7d90612cca565b8015610aca5780601f10610a9f57610100808354040283529160200191610aca565b820191906000526020600020905b815481529060010190602001808311610aad57829003601f168201915b505050505081565b6000806000600860009054906101000a90046dffffffffffffffffffffffffffff166008600e9054906101000a90046dffffffffffffffffffffffffffff166008601c9054906101000a900463ffffffff16925092509250909192565b600081600460003373ffffffffffffffffffffffffffffffffffffffff1673ffffffffffffffffffffffffffffffffffffffff16815260200190815260200160002060008573ffffffffffffffffffffffffffffffffffffffff1673ffffffffffffffffffffffffffffffffffffffff168152602001908152602001600020819055508273ffffffffffffffffffffffffffffffffffffffff163373ffffffffffffffffffffffffffffffffffffffff167f8c5be1e5ebec7d5bd14f71427d1e84f3dd0314c0f7b2291e5b200ac8c7c3b92584604051610c0f9190612898565b60405180910390a36001905092915050565b600660009054906101000a900473ffffffffffffffffffffffffffffffffffffffff1681565b60025481565b600080600460008673ffffffffffffffffffffffffffffffffffffffff1673ffffffffffffffffffffffffffffffffffffffff16815260200190815260200160002060003373ffffffffffffffffffffffffffffffffffffffff1673ffffffffffffffffffffffffffffffffffffffff1681526020019081526020016000205490507fffffffffffffffffffffffffffffffffffffffffffffffffffffffffffffffff8114610d83578281610d029190612c0d565b600460008773ffffffffffffffffffffffffffffffffffffffff1673ffffffffffffffffffffffffffffffffffffffff16815260200190815260200160002060003373ffffffffffffffffffffffffffffffffffffffff1673ffffffffffffffffffffffffffffffffffffffff168152602001908152602001600020819055505b82600360008773ffffffffffffffffffffffffffffffffffffffff1673ffffffffffffffffffffffffffffffffffffffff1681526020019081526020016000206000828254610dd29190612c0d565b9250508190555082600360008673ffffffffffffffffffffffffffffffffffffffff1673ffffffffffffffffffffffffffffffffffffffff168152602001908152602001600020600082825401925050819055508373ffffffffffffffffffffffffffffffffffffffff168573ffffffffffffffffffffffffffffffffffffffff167fddf252ad1be2c89b69c2b068fc378daa952ba7f163c4a11628f55a4df523b3ef85604051610e839190612898565b60405180910390a360019150509392505050565b7f000000000000000000000000000000000000000000000000000000000000000081565b60007f00000000000000000000000000000000000000000000000000000000000000004614610ef157610eec61220b565b610f13565b7f00000000000000000000000000000000000000000000000000000000000000005b905090565b600073ffffffffffffffffffffffffffffffffffffffff16600660009054906101000a900473ffffffffffffffffffffffffffffffffffffffff1673ffffffffffffffffffffffffffffffffffffffff16141580610fc55750600073ffffffffffffffffffffffffffffffffffffffff16600760009054906101000a900473ffffffffffffffffffffffffffffffffffffffff1673ffffffffffffffffffffffffffffffffffffffff1614155b15610ffc576040517f0dc149f000000000000000000000000000000000000000000000000000000000815260040160405180910390fd5b81600660006101000a81548173ffffffffffffffffffffffffffffffffffffffff021916908373ffffffffffffffffffffffffffffffffffffffff16021790555080600760006101000a81548173ffffffffffffffffffffffffffffffffffffffff021916908373ffffffffffffffffffffffffffffffffffffffff1602179055505050565b60095481565b600a5481565b600080600061109b610ad2565b50915091506000600660009054906101000a900473ffffffffffffffffffffffffffffffffffffffff1673ffffffffffffffffffffffffffffffffffffffff166370a08231306040518263ffffffff1660e01b81526004016110fd919061286e565b6020604051808303816000875af115801561111c573d6000803e3d6000fd5b505050506040513d601f19601f820116820180604052508101906111409190612bb1565b90506000600760009054906101000a900473ffffffffffffffffffffffffffffffffffffffff1673ffffffffffffffffffffffffffffffffffffffff166370a08231306040518263ffffffff1660e01b815260040161119f919061286e565b6020604051808303816000875af11580156111be573d6000803e3d6000fd5b505050506040513d601f19601f820116820180604052508101906111e29190612bb1565b90506000846dffffffffffffffffffffffffffff16836112029190612c0d565b90506000846dffffffffffffffffffffffffffff16836112229190612c0d565b905060006002541415611264576103e861124682846112419190612c41565b612297565b6112509190612c0d565b965061125f60006103e8612311565b6112c1565b6112be866dffffffffffffffffffffffffffff16600254846112869190612c41565b6112909190612d2b565b866dffffffffffffffffffffffffffff16600254846112af9190612c41565b6112b99190612d2b565b6123e1565b96505b600087116112fb576040517fd226f9d400000000000000000000000000000000000000000000000000000000815260040160405180910390fd5b6113058888612311565b61131184848888611f67565b8773ffffffffffffffffffffffffffffffffffffffff167f4c209b5fc8ad50758f13e2e1088ba56a560dff690a1c6fef26394f4c03821c4f83836040516113599291906129de565b60405180910390a2505050505050919050565b60036020528060005260406000206000915090505481565b60056020528060005260406000206000915090505481565b6000806000600660009054906101000a900473ffffffffffffffffffffffffffffffffffffffff1673ffffffffffffffffffffffffffffffffffffffff166370a08231306040518263ffffffff1660e01b81526004016113fc919061286e565b6020604051808303816000875af115801561141b573d6000803e3d6000fd5b505050506040513d601f19601f8201168201806040525081019061143f9190612bb1565b90506000600760009054906101000a900473ffffffffffffffffffffffffffffffffffffffff1673ffffffffffffffffffffffffffffffffffffffff166370a08231306040518263ffffffff1660e01b815260040161149e919061286e565b6020604051808303816000875af11580156114bd573d6000803e3d6000fd5b505050506040513d601f19601f820116820180604052508101906114e19190612bb1565b90506000600360003073ffffffffffffffffffffffffffffffffffffffff1673ffffffffffffffffffffffffffffffffffffffff16815260200190815260200160002054905060025483826115369190612c41565b6115409190612d2b565b945060025482826115519190612c41565b61155b9190612d2b565b9350600085148061156c5750600084145b156115a3576040517f749383ad00000000000000000000000000000000000000000000000000000000815260040160405180910390fd5b6115ad30826123fa565b6115da600660009054906101000a900473ffffffffffffffffffffffffffffffffffffffff168787611dff565b611607600760009054906101000a900473ffffffffffffffffffffffffffffffffffffffff168786611dff565b600660009054906101000a900473ffffffffffffffffffffffffffffffffffffffff1673ffffffffffffffffffffffffffffffffffffffff166370a08231306040518263ffffffff1660e01b8152600401611662919061286e565b6020604051808303816000875af1158015611681573d6000803e3d6000fd5b505050506040513d601f19601f820116820180604052508101906116a59190612bb1565b9250600760009054906101000a900473ffffffffffffffffffffffffffffffffffffffff1673ffffffffffffffffffffffffffffffffffffffff166370a08231306040518263ffffffff1660e01b8152600401611702919061286e565b6020604051808303816000875af1158015611721573d6000803e3d6000fd5b505050506040513d601f19601f820116820180604052508101906117459190612bb1565b9150600080611752610ad2565b509150915061176385858484611f67565b3373ffffffffffffffffffffffffffffffffffffffff167fdccd412f0b1252819cb1fd330b93224ca42612892bb3f4f789976e6d8193649688888b6040516117ad93929190612d5c565b60405180910390a25050505050915091565b600180546117cc90612cca565b80601f01602080910402602001604051908101604052809291908181526020018280546117f890612cca565b80156118455780601f1061181a57610100808354040283529160200191611845565b820191906000526020600020905b81548152906001019060200180831161182857829003601f168201915b505050505081565b600081600360003373ffffffffffffffffffffffffffffffffffffffff1673ffffffffffffffffffffffffffffffffffffffff168152602001908152602001600020600082825461189e9190612c0d565b9250508190555081600360008573ffffffffffffffffffffffffffffffffffffffff1673ffffffffffffffffffffffffffffffffffffffff168152602001908152602001600020600082825401925050819055508273ffffffffffffffffffffffffffffffffffffffff163373ffffffffffffffffffffffffffffffffffffffff167fddf252ad1be2c89b69c2b068fc378daa952ba7f163c4a11628f55a4df523b3ef8460405161194f9190612898565b60405180910390a36001905092915050565b600760009054906101000a900473ffffffffffffffffffffffffffffffffffffffff1681565b428410156119ca576040517f08c379a00000000000000000000000000000000000000000000000000000000081526004016119c190612ddf565b60405180910390fd5b600060016119d6610ebb565b7f6e71edae12b1b97f4d1f60370fef10105fa2faae0126114a169c64845d6126c98a8a8a600560008f73ffffffffffffffffffffffffffffffffffffffff1673ffffffffffffffffffffffffffffffffffffffff1681526020019081526020016000206000815480929190600101919050558b604051602001611a5e96959493929190612dff565b60405160208183030381529060405280519060200120604051602001611a85929190612ed8565b6040516020818303038152906040528051906020012085858560405160008152602001604052604051611abb9493929190612f0f565b6020604051602081039080840390855afa158015611add573d6000803e3d6000fd5b505050602060405103519050600073ffffffffffffffffffffffffffffffffffffffff168173ffffffffffffffffffffffffffffffffffffffff1614158015611b5157508773ffffffffffffffffffffffffffffffffffffffff168173ffffffffffffffffffffffffffffffffffffffff16145b611b90576040517f08c379a0000000000000000000000000000000000000000000000000000000008152600401611b8790612fa0565b60405180910390fd5b85600460008373ffffffffffffffffffffffffffffffffffffffff1673ffffffffffffffffffffffffffffffffffffffff16815260200190815260200160002060008973ffffffffffffffffffffffffffffffffffffffff1673ffffffffffffffffffffffffffffffffffffffff16815260200190815260200160002081905550508573ffffffffffffffffffffffffffffffffffffffff168773ffffffffffffffffffffffffffffffffffffffff167f8c5be1e5ebec7d5bd14f71427d1e84f3dd0314c0f7b2291e5b200ac8c7c3b92587604051611c6f9190612898565b60405180910390a350505050505050565b6004602052816000526040600020602052806000526040600020600091509150505481565b600080611cb0610ad2565b5091509150611dfb600660009054906101000a900473ffffffffffffffffffffffffffffffffffffffff1673ffffffffffffffffffffffffffffffffffffffff166370a08231306040518263ffffffff1660e01b8152600401611d13919061286e565b6020604051808303816000875af1158015611d32573d6000803e3d6000fd5b505050506040513d601f19601f82011682018060405250810190611d569190612bb1565b600760009054906101000a900473ffffffffffffffffffffffffffffffffffffffff1673ffffffffffffffffffffffffffffffffffffffff166370a08231306040518263ffffffff1660e01b8152600401611db1919061286e565b6020604051808303816000875af1158015611dd0573d6000803e3d6000fd5b505050506040513d601f19601f82011682018060405250810190611df49190612bb1565b8484611f67565b5050565b6000808473ffffffffffffffffffffffffffffffffffffffff168484604051602401611e2c929190612fc0565b6040516020818303038152906040527fa9059cbb000000000000000000000000000000000000000000000000000000007bffffffffffffffffffffffffffffffffffffffffffffffffffffffff19166020820180517bffffffffffffffffffffffffffffffffffffffffffffffffffffffff8381831617835250505050604051611eb69190613030565b6000604051808303816000865af19150503d8060008114611ef3576040519150601f19603f3d011682016040523d82523d6000602084013e611ef8565b606091505b5091509150811580611f2957506000815114158015611f28575080806020019051810190611f269190613073565b155b5b15611f60576040517f90b8ec1800000000000000000000000000000000000000000000000000000000815260040160405180910390fd5b5050505050565b6dffffffffffffffffffffffffffff8016841180611f9457506dffffffffffffffffffffffffffff801683115b15611fcb576040517f89560ca100000000000000000000000000000000000000000000000000000000815260040160405180910390fd5b60006008601c9054906101000a900463ffffffff164203905060008163ffffffff1611801561200a57506000836dffffffffffffffffffffffffffff16115b801561202657506000826dffffffffffffffffffffffffffff16115b15612108578063ffffffff1661206b8461203f856124ca565b7bffffffffffffffffffffffffffffffffffffffffffffffffffffffff166124fe90919063ffffffff16565b7bffffffffffffffffffffffffffffffffffffffffffffffffffffffff16026009600082825401925050819055508063ffffffff166120d9836120ad866124ca565b7bffffffffffffffffffffffffffffffffffffffffffffffffffffffff166124fe90919063ffffffff16565b7bffffffffffffffffffffffffffffffffffffffffffffffffffffffff1602600a600082825401925050819055505b5083600860006101000a8154816dffffffffffffffffffffffffffff02191690836dffffffffffffffffffffffffffff160217905550826008600e6101000a8154816dffffffffffffffffffffffffffff02191690836dffffffffffffffffffffffffffff160217905550426008601c6101000a81548163ffffffff021916908363ffffffff1602179055507fcf2aa50876cdfbb541206f89af0ee78d44a2abf8d328e37fa4917f982149848a600860009054906101000a90046dffffffffffffffffffffffffffff166008600e9054906101000a90046dffffffffffffffffffffffffffff166040516121fd9291906130db565b60405180910390a150505050565b60007f8b73c3c69bb8fe3d512ecc4cf759cc79239f7b179b0ffacaa9a75d522b39400f600060405161223d9190613198565b60405180910390207fc89efdaa54c0f20c7adf612882df0950f5a951637e0307cdcb4c672f298b8bc6463060405160200161227c9594939291906131af565b60405160208183030381529060405280519060200120905090565b600060038211156122fe57819050600060016002846122b69190612d2b565b6122c09190613202565b90505b818110156122f85780915060028182856122dd9190612d2b565b6122e79190613202565b6122f19190612d2b565b90506122c3565b5061230c565b6000821461230b57600190505b5b919050565b80600260008282546123239190613202565b9250508190555080600360008473ffffffffffffffffffffffffffffffffffffffff1673ffffffffffffffffffffffffffffffffffffffff168152602001908152602001600020600082825401925050819055508173ffffffffffffffffffffffffffffffffffffffff16600073ffffffffffffffffffffffffffffffffffffffff167fddf252ad1be2c89b69c2b068fc378daa952ba7f163c4a11628f55a4df523b3ef836040516123d59190612898565b60405180910390a35050565b60008183106123f057816123f2565b825b905092915050565b80600360008473ffffffffffffffffffffffffffffffffffffffff1673ffffffffffffffffffffffffffffffffffffffff16815260200190815260200160002060008282546124499190612c0d565b9250508190555080600260008282540392505081905550600073ffffffffffffffffffffffffffffffffffffffff168273ffffffffffffffffffffffffffffffffffffffff167fddf252ad1be2c89b69c2b068fc378daa952ba7f163c4a11628f55a4df523b3ef836040516124be9190612898565b60405180910390a35050565b60006e010000000000000000000000000000826dffffffffffffffffffffffffffff166124f79190613280565b9050919050565b6000816dffffffffffffffffffffffffffff168361251c91906132d6565b905092915050565b600080fd5b600080fd5b6000819050919050565b6125418161252e565b811461254c57600080fd5b50565b60008135905061255e81612538565b92915050565b600073ffffffffffffffffffffffffffffffffffffffff82169050919050565b600061258f82612564565b9050919050565b61259f81612584565b81146125aa57600080fd5b50565b6000813590506125bc81612596565b92915050565b600080fd5b600080fd5b600080fd5b60008083601f8401126125e7576125e66125c2565b5b8235905067ffffffffffffffff811115612604576126036125c7565b5b6020830191508360018202830111156126205761261f6125cc565b5b9250929050565b60008060008060006080868803121561264357612642612524565b5b60006126518882890161254f565b95505060206126628882890161254f565b9450506040612673888289016125ad565b935050606086013567ffffffffffffffff81111561269457612693612529565b5b6126a0888289016125d1565b92509250509295509295909350565b600081519050919050565b600082825260208201905092915050565b60005b838110156126e95780820151818401526020810190506126ce565b838111156126f8576000848401525b50505050565b6000601f19601f8301169050919050565b600061271a826126af565b61272481856126ba565b93506127348185602086016126cb565b61273d816126fe565b840191505092915050565b60006020820190508181036000830152612762818461270f565b905092915050565b60006dffffffffffffffffffffffffffff82169050919050565b61278d8161276a565b82525050565b600063ffffffff82169050919050565b6127ac81612793565b82525050565b60006060820190506127c76000830186612784565b6127d46020830185612784565b6127e160408301846127a3565b949350505050565b60008060408385031215612800576127ff612524565b5b600061280e858286016125ad565b925050602061281f8582860161254f565b9150509250929050565b60008115159050919050565b61283e81612829565b82525050565b60006020820190506128596000830184612835565b92915050565b61286881612584565b82525050565b6000602082019050612883600083018461285f565b92915050565b6128928161252e565b82525050565b60006020820190506128ad6000830184612889565b92915050565b6000806000606084860312156128cc576128cb612524565b5b60006128da868287016125ad565b93505060206128eb868287016125ad565b92505060406128fc8682870161254f565b9150509250925092565b600060ff82169050919050565b61291c81612906565b82525050565b60006020820190506129376000830184612913565b92915050565b6000819050919050565b6129508161293d565b82525050565b600060208201905061296b6000830184612947565b92915050565b6000806040838503121561298857612987612524565b5b6000612996858286016125ad565b92505060206129a7858286016125ad565b9150509250929050565b6000602082840312156129c7576129c6612524565b5b60006129d5848285016125ad565b91505092915050565b60006040820190506129f36000830185612889565b612a006020830184612889565b9392505050565b612a1081612906565b8114612a1b57600080fd5b50565b600081359050612a2d81612a07565b92915050565b612a3c8161293d565b8114612a4757600080fd5b50565b600081359050612a5981612a33565b92915050565b600080600080600080600060e0888a031215612a7e57612a7d612524565b5b6000612a8c8a828b016125ad565b9750506020612a9d8a828b016125ad565b9650506040612aae8a828b0161254f565b9550506060612abf8a828b0161254f565b9450506080612ad08a828b01612a1e565b93505060a0612ae18a828b01612a4a565b92505060c0612af28a828b01612a4a565b91505092959891949750929550565b600082825260208201905092915050565b82818337600083830152505050565b6000612b2d8385612b01565b9350612b3a838584612b12565b612b43836126fe565b840190509392505050565b6000608082019050612b63600083018861285f565b612b706020830187612889565b612b7d6040830186612889565b8181036060830152612b90818486612b21565b90509695505050505050565b600081519050612bab81612538565b92915050565b600060208284031215612bc757612bc6612524565b5b6000612bd584828501612b9c565b91505092915050565b7f4e487b7100000000000000000000000000000000000000000000000000000000600052601160045260246000fd5b6000612c188261252e565b9150612c238361252e565b925082821015612c3657612c35612bde565b5b828203905092915050565b6000612c4c8261252e565b9150612c578361252e565b9250817fffffffffffffffffffffffffffffffffffffffffffffffffffffffffffffffff0483118215151615612c9057612c8f612bde565b5b828202905092915050565b7f4e487b7100000000000000000000000000000000000000000000000000000000600052602260045260246000fd5b60006002820490506001821680612ce257607f821691505b60208210811415612cf657612cf5612c9b565b5b50919050565b7f4e487b7100000000000000000000000000000000000000000000000000000000600052601260045260246000fd5b6000612d368261252e565b9150612d418361252e565b925082612d5157612d50612cfc565b5b828204905092915050565b6000606082019050612d716000830186612889565b612d7e6020830185612889565b612d8b604083018461285f565b949350505050565b7f5045524d49545f444541444c494e455f45585049524544000000000000000000600082015250565b6000612dc96017836126ba565b9150612dd482612d93565b602082019050919050565b60006020820190508181036000830152612df881612dbc565b9050919050565b600060c082019050612e146000830189612947565b612e21602083018861285f565b612e2e604083018761285f565b612e3b6060830186612889565b612e486080830185612889565b612e5560a0830184612889565b979650505050505050565b600081905092915050565b7f1901000000000000000000000000000000000000000000000000000000000000600082015250565b6000612ea1600283612e60565b9150612eac82612e6b565b600282019050919050565b6000819050919050565b612ed2612ecd8261293d565b612eb7565b82525050565b6000612ee382612e94565b9150612eef8285612ec1565b602082019150612eff8284612ec1565b6020820191508190509392505050565b6000608082019050612f246000830187612947565b612f316020830186612913565b612f3e6040830185612947565b612f4b6060830184612947565b95945050505050565b7f494e56414c49445f5349474e4552000000000000000000000000000000000000600082015250565b6000612f8a600e836126ba565b9150612f9582612f54565b602082019050919050565b60006020820190508181036000830152612fb981612f7d565b9050919050565b6000604082019050612fd5600083018561285f565b612fe26020830184612889565b9392505050565b600081519050919050565b600081905092915050565b600061300a82612fe9565b6130148185612ff4565b93506130248185602086016126cb565b80840191505092915050565b600061303c8284612fff565b915081905092915050565b61305081612829565b811461305b57600080fd5b50565b60008151905061306d81613047565b92915050565b60006020828403121561308957613088612524565b5b60006130978482850161305e565b91505092915050565b6000819050919050565b60006130c56130c06130bb8461276a565b6130a0565b61252e565b9050919050565b6130d5816130aa565b82525050565b60006040820190506130f060008301856130cc565b6130fd60208301846130cc565b9392505050565b60008190508160005260206000209050919050565b6000815461312681612cca565b6131308186612ff4565b9450600182166000811461314b576001811461315c5761318f565b60ff1983168652818601935061318f565b61316585613104565b60005b8381101561318757815481890152600182019150602081019050613168565b838801955050505b50505092915050565b60006131a48284613119565b915081905092915050565b600060a0820190506131c46000830188612947565b6131d16020830187612947565b6131de6040830186612947565b6131eb6060830185612889565b6131f8608083018461285f565b9695505050505050565b600061320d8261252e565b91506132188361252e565b9250827fffffffffffffffffffffffffffffffffffffffffffffffffffffffffffffffff0382111561324d5761324c612bde565b5b828201905092915050565b60007bffffffffffffffffffffffffffffffffffffffffffffffffffffffff82169050919050565b600061328b82613258565b915061329683613258565b9250817bffffffffffffffffffffffffffffffffffffffffffffffffffffffff04831182151516156132cb576132ca612bde565b5b828202905092915050565b60006132e182613258565b91506132ec83613258565b9250826132fc576132fb612cfc565b5b82820490509291505056fea26469706673582212207d211d42313c253b119386ffb03cfa4391b64e2556a5a6c9abecd4b08b0ec2e164736f6c634300080a0033",
  "linkReferences": {},
  "deployedLinkReferences": {}
}